:040000008031102813
:100008007E14803120007F08DC009431B924200060
:100018005C08FF007E100900803112289331F2231A
:100028008031E3009331F3238031E4009331F423EA
:100038008031E500043084009430850021001200EE
:10004800E7001200E8001200E9001200EA001200BE
:10005800EB001200EC001200ED001200EE00F03090
:100068008400203085000030FE000130FF0094310C
:100078002124803120308400003085003430FE0097
:100088000030FF00943121248031A03084000030FA
:1000980085003C30FE000030FF00943121247E10A2
:1000A80020008831BC284A08013EE73E86008701C7
:1000B80001084D06031D83283608370403196828EC
:1000C8000130B6020030B73B0130D4000030D50013
:1000D8000030D6000030D7005408A4025508A53BCC
:1000E8005608A63B5708A73B04304A02031C7F2842
:1000F800CA01CA0A83280130D4005408CA074D0827
:10010800D4005408CC002700960120003508370693
:10011800031D902834083606031DE1281C111A080F
:10012800D4005408B20036082100AC072000370874
:100138002100AD3D0030AE3DAF3D2000B601B70116
:100148009A011C1533083902031DAC2832083802FD
:100158000318C7284008031DC7283F083D02031D90
:10016800B7283E083C020318D6286308D400D501F6
:10017800D409D509D40A0319D50A3E085407BE0084
:100188003F08553DD5283B083F02031DCD283A08B6
:100198003E020318D62863083E07BE003F0803182E
:1001A8003F0ABF003F0829009C0020003E082900A4
:1001B8009B0020009110B201B3010B10270096019B
:1001C8002000911CC82A91100130D4005408B307AC
:1001D80033083902031DF228320838020318C82AE6
:1001E800B201B30135083702031DFC283408360272
:1001F800031817294008031D1F293F083D02031D46
:1002080007293E083C0203182E296308D400D501AB
:10021800D409D509D40A0319D50A3E085407BE00E3
:100228003F08553D2D2937083502031D1D2936087D
:10023800340203182E293B083F02031D25293A08DA
:100248003E0203182E2963083E07BE003F08031824
:100258003F0ABF0036082100AC07200037082100FC
:10026800AD3D0030AE3DAF3D2000B601B7013F08BF
:1002780029009C0020003E0829009B00C82A200075
:100288004608031DC82A0B1CFD290B100D1E4F29FB
:1002980020000C16512920000C120D1F5629200091
:1002A8008E17582920008E132700161A5D29161F4D
:1002B800FB29003020000D1B0230D4005408CD006B
:1002C80000300D1A0130D4005408CD074903031D2E
:1002D800A5294A08013EE73E8600870101084D0628
:1002E800031D83290130B6070030B73D0130A4074C
:1002F8000030A53D0030A63D0030A73DEA294A0858
:10030800FF3EE73E8600870101084D06031DF529DB
:1003180036083704031994290130B6020030B73B78
:100328000130D4000030D5000030D6000030D700AE
:100338005408A4025508A53B5608A63B5708A73BF6
:10034800BD294803031DF5294A08FF3EE73E8600FC
:10035800870101084D06031DC9290130B607003081
:10036800B73D0130A4070030A53D0030A63D003060
:10037800A73D02304A020318C6290430D4005408A5
:10038800CA00F5290130CA02F5294A08013EE73EAC
:100398008600870101084D06031DF5293608370434
:1003A8000319DA290130B6020030B73B0130D40016
:1003B8000030D5000030D6000030D7005408A40221
:1003C8005508A53B5608A63B5708A73B04304A02E8
:1003D800031CF129CA01CA0AF5290130D4005408BE
:1003E800CA074D08D4005408CC00270096010B100A
:1003F80096012000911CC82A91104608031DC82A9E
:100408000130D40054082100D90759086D06031D8E
:10041800C82AD9015603031DC42A20004108031D18
:10042800172AC101C10A0130D40054082100D80795
:10043800580820006506031D852A37083902031D60
:10044800272A360838020318432A21004D082000BD
:100458003B02031D332A21004C0820003A020318EE
:100468006B2A63083C07BC003D0803183D0ABD0021
:1004780063083A07BA003B0803183B0A6A2A3D0892
:1004880021004F02031D4C2A20003C0821004E0287
:1004980003186B2A20006308D400D501D409D509B4
:1004A800D40A0319D50A3C085407BC003D08553D39
:1004B800BD006308D400D501D409D509D40A0319AD
:1004C800D50A3A085407BA003B08553DBB0020003E
:1004D8003B0829009C0020003A0829009B002000C6
:1004E8003B08BF003A08BE002100C801C901D80175
:1004F80020003608D40054082100D0002000B6019E
:10050800B7018E1D0E1BC82A00300D1B0230D40007
:100518005408CC0000300D1A0130D4005408CC0720
:10052800CB01CB0A05304B020318B22A4B08E73E31
:100538008600870101084C06031DAA2A4B08D4002F
:100548005408CA000530D4005408CB000130D40048
:100558005408CB0705304B02031C9A2A4903031D94
:10056800BB2A4103031DBB2A0E138E15C82A480354
:10057800031DC82A4103031DC82A8E110E17C82A55
:1005880020008E110E13C1012000921EE22A921241
:10059800121323000E110E1020000E19DA2A0E1C59
:1005A800DF2A0230873156278031DF2A0E1CDF2AE6
:1005B80094313A24803123000E150E142000121FA6
:1005C800FB2A121323000E100E1120000E18F32A16
:1005D8000E1DF82A0130873156278031F82A0E1D62
:1005E800F82A94313A24803123000E140E150B1D7D
:1005F800D92E0B1101302100A8070030A93D003089
:10060800AA3D0030AB3D20004308031DD92E2B081E
:1006180021002B06031D202B20002A0821002A0672
:10062800031D202B2000290821002906031D202B4B
:100638002000280821002806031D5503031DD92E74
:100648000030AB000030AA000030A9000030A8003C
:10065800D50195162000950145084402031CB42EC7
:10066800CA2E0130D4005408C4074408F03E86005E
:1006780087012030873D0108D5005508C2000130A8
:10068800D4005408C4074408F03E8600870120308F
:10069800873D0108D5005508A8000130D40054084A
:1006A800C4074408F03E860087012030873D0108D2
:1006B800D5005508A9000130D4005408C4074408DF
:1006C800F03E860087012030873D0108D500550897
:1006D800AA000130D4005408C4074408F03E86003C
:1006E80087012030873D0108D5005508AB002B084D
:1006F800031D882B2A08031D882B2908031D882B16
:100708002A302802031CD42B0030F3000030F200FA
:100718000030F1002A30F0002B08F7002A08F60014
:100728002908F5002808F4008731A92780317308C3
:100738002100A7007208A6007108A5007008A4008F
:1007480020002808D4002908D5002A08D6002B083C
:10075800D700210024092000D80021002509200005
:10076800D900210026092000DA00210027092000ED
:10077800DB00D80A0319D90A0319DA0A0319DB0AB4
:100788005808D4075908D53D5A08D63D5B08D73DC7
:100798005708AB005608AA005508A9005408A80035
:1007A8002100951201302000D4005408C4074208E3
:1007B800873156278031C82E01302000D4005408D4
:1007C800C4074408F03E860087012030873D0108B1
:1007D800D5005508A8000130D4005408C4074408BF
:1007E800F03E860087012030873D0108D500550876
:1007F800A9000130D4005408C4074408F03E86001C
:1008080087012030873D0108D5005508AA0001302E
:10081800D4005408C4074408F03E860087012030FD
:10082800873D0108D5005508AB002B08031D262C71
:100838002A08031D262C2908031D262C2A302802E5
:10084800031C722C0030F3000030F2000030F1007D
:100858002A30F0002B08F7002A08F6002908F500CE
:100868002808F4008731A927803173082100A700E0
:100878007208A6007108A5007008A40020002808C6
:10088800D4002908D5002A08D6002B08D700210053
:1008980024092000D800210025092000D9002100C2
:1008A80026092000DA00210027092000DB00D80AE9
:1008B8000319D90A0319DA0A0319DB0A5808D407F5
:1008C8005908D53D5A08D63D5B08D73D5708AB00B7
:1008D8005608AA005508A9005408A8002100951236
:1008E80094313A24803101302000D4005408C407E0
:1008F800C82E0130D4005408C4074408F03E8600CE
:1009080087012030873D0108D5005508D200013005
:10091800D4005408C4074408F03E860087012030FC
:10092800873D0108D5005508D3005208D400540863
:10093800B0005308D4005408B1005308F900520815
:10094800F8008A31B6228031712E0130D400540863
:10095800C4074408F03E860087012030873D01081F
:10096800D5005508C20000302100AF000030AE00AD
:100978000030AD000030AC0000302000A70000308F
:10098800A6000030A5000030A40042088731562791
:1009980080312000C401E401E40A9112C82E943188
:1009A8003A2480312000E401E40A91124E03031D29
:1009B800F42C2408D4002508D5002608D6002708DA
:1009C800D7000130D435D50DD60DD70D890BE62CBF
:1009D8005708A7005608A6005508A5005408A40003
:1009E800C4011112053023009A009E1CF92C200026
:1009F800111223009E102000240823009A009E1C38
:100A0800032D20001112250823009A009E1C0A2D90
:100A180020001112260823009A009E1C112D200088
:100A28001112270823009A0000302100AF0000307F
:100A3800AE000030AD000030AC0000302000A70050
:100A48000030A6000030A5000030A400C82E0130F8
:100A5800D4005408C4074408F03E860087012030BB
:100A6800873D0108D5005508C2000130D40054085C
:100A7800C4074408F03E860087012030873D0108FE
:100A8800D5005508A0000130D4005408C407440814
:100A9800F03E860087012030873D0108D5005508C3
:100AA800A1000130D4005408C4074408F03E860071
:100AB80087012030873D0108D5005508A200A30111
:100AC800CF0100303102C93003193002031C042E53
:100AD80021003C082000D40021003D082000D5005A
:100AE800D601D70123085702031D842D2208560278
:100AF800031D842D21085502031D842D200854024E
:100B08000318BB2D2008D4002108D5002208D600E0
:100B18002308D70021003C082000D80021003D0808
:100B28002000D900DA01DB01D809D909DA09DB0983
:100B3800D80A0319D90A0319DA0A0319DB0A58086B
:100B4800D4075908D53D5A08D63D5B08D73D570804
:100B58002100A300200056082100A200200055080B
:100B68002100A100200054082100A000D92D200058
:100B780023082100A300200022082100A200200051
:100B880021082100A100200020082100A000200049
:100B9800CF01CF0AC830D2000030D300C830F800E7
:100BA8000030F9008A31B622803120004E03031D3F
:100BB800062E210020082000D40021002108200052
:100BC800D500210022082000D6002100230820009B
:100BD800D7000130D736D60CD50CD40C890BEE2DA6
:100BE80057082100A300200056082100A200200079
:100BF80055082100A100200054082100A000062E5D
:100C0800CF01CF0A2000D001D00A0130D400540807
:100C1800C40700302100AF000030AE000030AD0046
:100C28000030AC0000302000A7000030A6000030E3
:100C3800A5000030A4004208873156278031C82E0D
:100C480001302000D4005408C4074408F03E860050
:100C580087012030873D0108D50055082100D400C0
:100C6800D101D10AD30120004408D400540821003E
:100C7800D200712E21005103031D712E0130200076
:100C8800D40054082100D307540853020318712EC6
:100C980052082000D4005408C400712E0130D4003A
:100CA8005408C4074408F03E860087012030873D79
:100CB8000108D50055082100BC0001302000D400EF
:100CC8005408C4074408F03E860087012030873D59
:100CD8000108D50055082100BD0001302000D400CE
:100CE8005408C407302B0130D4005408C407440802
:100CF800F03E860087012030873D0108D500550861
:100D0800C2003430D2000830D3003430F800083044
:100D1800F9008A31B622803196302100C2000030B5
:100D2800C3002000D0010130D4005408C4070030AB
:100D38002100AF000030AE000030AD000030AC0044
:100D480000302000A7000030A6000030A5000030C9
:100D5800A400C301C30A4208873156278031C82E30
:100D680020004408F03E860087012030873D0108B6
:100D7800FF3E031CC82E84000B3004020318C82E43
:100D880090310435503E82000B11D92E2000C40149
:100D980094313A2480312000E401E40A911291123E
:100DA800C4011112073023009A0020005003031DCC
:100DB80008004F08031D282F2100230820002702C0
:100DC800031DF62E2100220820002602031DF62E00
:100DD8002100210820002502031DF62E21002008ED
:100DE80020002402031C0800CF01CF0A94313A24C2
:100DF800803120004E03031D182F2408D400250835
:100E0800D5002608D6002708D7000130D435D50DDF
:100E1800D60DD70D890B0A2F5708A7005608A6002C
:100E28005508A5005408A400C830D2000030D300EB
:100E3800C830F8000030F9008A31B622803120002D
:100E4800420887315627080020004F03031D080079
:100E580023082702031D3A2F22082602031D3A2FD2
:100E680021082502031D3A2F20082402031C08002C
:100E7800CF0194313A24803120003108D300300862
:100E8800D2003108F9003008F8008A31B622FF3064
:100E980020009500210095122000D0012100D501E5
:100EA800D50A0800F10020004F08031D632F003009
:100EB800A7000030A6000030A5000030A4002100E3
:100EC800D601D60A003020000D1B0230F000700851
:100ED800CC0000300D1A0130F0007008CC07CB01AF
:100EE800CB0A05304B020318912F4B08E73E8600CA
:100EF800870101084C06031D892F4B08F000700874
:100F0800CA000530F0007008CB000130F00070080E
:100F1800CB0705304B02031C792F8B157103031D7A
:100F28009E2FC901C801C80A46080319A62F8E11A9
:100F38000E17A62FC801C901C90A46080319A62F0A
:100F48000E138E159A011C1508000030FC000030A5
:100F5800FB000030FA000030F900730872047104D5
:100F680070040319F22FFD01FD0AF31BC72F01308E
:100F7800F035F10DF20DF30D890BBC2F0130F8009F
:100F88007808FD07B92F0130F935FA0DFB0DFC0D76
:100F9800890BC82F73087702031DDC2F72087602AD
:100FA800031DDC2F71087502031DDC2F7008740205
:100FB800031CE72F7008F4027108F53B7208F63B32
:100FC8007308F73B79140130F336F20CF10CF00C8E
:100FD800890BE82F0130FD02031DC72F7C08F300A1
:100FE8007B08F2007A08F1007908F00008007830F0
:060FF80021009900080031
:101000002000E101E2015D1C09285F08E10760089A
:10101000E23D0130DF35E00D890B0A280130DE3674
:10102000DD0C890B0F285D085E04031D0328620890
:10103000DE006108DD0008002100951320008C010E
:1010400022008C0123008C0121008C018C162400CD
:101050008C1621000C1220008D0122008D0123002E
:101060008D0121008D010D160D1720008E0122002B
:101070008E0123008E0121008E0123008E14210099
:101080000E148E140E158E130800F501F60170086B
:10109000710403197428F701F70AF11B592801306C
:1010A000F035F10D890B50280130F4007408F70772
:1010B0004D280130F535F60D890B5A287108730259
:1010C000031D642870087202031C6B287008F2026A
:1010D0007108F33B75140130F136F00C890B6C2864
:1010E0000130F702031D59287608F1007508F00059
:1010F00008002100DD01DE0120005D085E04031907
:10110000B3282100DC01DC0A2000DE1B932801301B
:101110002000DD35DE0D890B89280130E1006108F2
:101120002100DC07842801302100DD35DE0D890B2C
:10113000952820005E086002031DA0285D085F025C
:10114000031CA8285D08DF025E08E03B21005D1457
:1011500001302000DE36DD0C890BAA280130210089
:10116000DC02031D932821005E082000DE00210020
:101170005D082000DD0008008731FB2788318831B9
:101180001C2088319431152488319331FC23883117
:1011900094315824883194312D2488319431682435
:1011A00088319331F52388319431952488319431F5
:1011B0000C24883134302000D2000830D30053088A
:1011C0002100E000200052082100DF008D314A2577
:1011D0008831F4302100BC000130BD002000410303
:1011E000031D70294608031D70294708031D342973
:1011F0003D083F02031DFE283C083E02031C312926
:1012000021004A09E3004B09E400E30A0319E40A58
:1012100020003E08210063072000BE003F08210097
:10122000643D2000BF003F0829009C0020003E08CC
:1012300029009B002000AE01AF0151082100E3000E
:10124000E401640820002F02031D2A2921006308FD
:1012500020002E02031870290130AE070030AF3D88
:101260001D29C701C70A70293F083B02031D3A29FF
:101270003E083A02031C642921004A0820003E0768
:10128000BE0021004B0820003F3DBF003F08290061
:101290009C0020003E0829009B002000AE01AF0109
:1012A00051082100E300E401640820002F02031D1F
:1012B0005D292100630820002E02031870290130E7
:1012C000AE070030AF3D5029C7018E110E133B0809
:1012D00029009C0020003A0829009B002000C10141
:1012E00046080319382A0530890B742900002100AB
:1012F0009D149D1879291B08E3006308C4001C088D
:10130000E3006308C50020004303031D292A2100D0
:1013100045084302031D8E294408420203180D2A82
:1013200020004008031DA229C001C00A9501210028
:1013300095120030AB000030AA000030A900003048
:10134000A800382A21002B08031DAF292A08031DF5
:10135000AF292C3028020130293B031C382A0130E8
:10136000B2070030B33D20002708031DC12926081D
:10137000031DC1292508031DC12932302402031C85
:10138000C929003021003302053003193202031C41
:10139000FB2921009516200095010030A7000030A0
:1013A000A6000030A5000030A400C30194314924F8
:1013B000883120003108D3003008D20031082100E4
:1013C000E000200030082100DF008D314A258831FF
:1013D0002000D0012100D501D50A0030AB0000303B
:1013E000AA000030A9000030A800FF3020009500BE
:1013F00021009512262A0030AB000030AA000030F0
:10140000A9000030A80000302000A7000030A6008E
:101410000030A5000030A400382A2000C0010030B0
:101420002100AB000030AA000030A9000030A80065
:1014300000302000A7000030A6000030A5000030DA
:10144000A40021009516200095012100B201B301EE
:10145000382A210045084302031D302A440842026D
:101460000318362A2000C001C00A382A2000C00113
:101470002000911EEE289112053023001906031D4D
:10148000892A20006403031D892A9112911E462A8D
:10149000230019082100E30063082000C500AE0105
:1014A000AF0145082100E300E401640820002F0299
:1014B000031D5E2A2100630820002E0203187F2AE4
:1014C0009112911E612AF0302100E3002030E400E7
:1014D00020002E0821006307E50020002F082100CE
:1014E000643DE60065088600660887002300190849
:1014F000810001302000AE070030AF3D512A91122B
:10150000FF30950021009512D501D50A2000E40195
:10151000B42A0A3023001906031DB32A20009112B1
:101520009431492488312000E401E40A003021008C
:10153000AB000030AA000030A9000030A800D5019F
:10154000D50A2000C301C501C4010030A700003046
:10155000A6000030A5000030A400D001210095169F
:1015600020009501EE2820009112EE287908803A9B
:10157000FA0080307A02031DBF2AC9307802031CAA
:10158000D32A7908803AFA00A7307A02031DCA2AC2
:10159000113078020318D32A0330FA007A082000A9
:1015A000C6006430192B7908803AFA0080307A023C
:1015B000031DDC2A64307802031CFF2A7908803A74
:1015C000FA0080307A02031DE72AC9307802031836
:1015D000FF2A0230FA007A082000C6000A30F00024
:1015E0000030F1005308F3005208F2008831452022
:1015F0008A3171082000D3007008D2003A2D790892
:10160000803AFA0080307A02031D082B15307802E8
:10161000031C322B7908803AFA0080307A02031DCD
:10162000132B643078020318322B2000C601C60A3F
:101630000A30F0000030F1005308F3005208F200C5
:10164000883145208A3171082000D3007008D2000B
:10165000023052065304031D3A2D0130D2070030E8
:10166000D33D3A2D7908803AFA0080307A02031D82
:101670003B2B01307802031C3A2D7908803AFA009E
:1016800080307A02031D462B1530780203183A2D5C
:101690002000C6013A2DCE01270014161516103071
:1016A0002000BE005830BF008D30BC005730BD0058
:1016B0001030BA005830BB00C6302100CE004B308D
:1016C000CF004730CC006130CD002000C7018E1123
:1016D0000E133F0829009C0020003E0829009B00B3
:1016E0000530FA007A082000E5001C302100CA000D
:1016F0000030CB000230FA007A082000D10014300C
:10170000FA007A08E300D92B2100ED01ED0AAC2B99
:101710002100ED01ED0A8930D62B2100ED01ED0A03
:10172000B32B2100ED01ED0A9930D62BB52B21000A
:10173000ED01ED0AC82BBA2B2100ED01ED0AC830EE
:10174000D62BBF2B2100ED01ED0AED30D62B023058
:10175000FA007A082100ED008230D62B0230FA0020
:101760007A082100ED009130D62B2100ED01ED0A21
:10177000A330D62B2100ED01ED0ABA30D62B210083
:10178000ED01ED0AD52B0330FA007A082100ED00B7
:10179000AE30D62B0330D12B0430D12B0630D12BD9
:1017A0000C30FA007A082100ED00D93020009B00AF
:1017B000E62B5208FF3E031CD02B84001430040299
:1017C0000318D02B90310435283E82009C141C1045
:1017D0001C179C161C169C150430B8000030B9006C
:1017E0009A011C150800CE01270014161516993011
:1017F0002000BE005930BF00CC30BC004C30BD00D2
:101800009930BA005930BB00C7018E110E133F0842
:1018100029009C0020003E0829009B003730FA0078
:101820007A082000E300E501E50A2100ED01ED0A58
:1018300020005308F1005208F0009830F2003A30CE
:10184000F300883145208A3171082000B900700802
:10185000B8003908F1003808F0000630F200003016
:10186000F30094317A248A3171082000B90070089D
:10187000B8003908FB003808FA00FB36FA0CFB36D2
:10188000FA0CFB36FA0C7A08B8007B08B900FA307B
:101890009B009C101C101C139C161C129C11C43025
:1018A000AC000030AD002D082100C30020002C0842
:1018B0002100C20001302000B4000030B5001C112E
:1018C0009A010800CE01270014161516F1302000E9
:1018D000BE005230BF00CC30BC004C30BD0099304F
:1018E000BA005930BB00C430AC000030AD002D0848
:1018F0002100C30020002C082100C2002000C701E5
:101900008E110E133F0829009C0020003E0829007C
:101910009B003730FA007A082000E300E501E50A71
:101920002100ED01ED0A20005209FA005309FB00E5
:10193000FA0A0319FB0A7A08143EF00000307B3DD6
:10194000F100CC30F2000130F30094317A247008B9
:10195000883E2000B8001330713DB90080309B00F4
:101960009C101C101C139C121C129C11C430AC0047
:101970000030AD002D082100C30020002C082100FC
:10198000C20001302000B4000030B5001C119A01E3
:101990000800F130BE005230BF00C030BC004A30F9
:1019A000BD009930BA005930BB00C7018E110E132B
:1019B0003F0829009C0020003E0829009B0037308A
:1019C000FA007A082000E300E501E50A2100ED01B4
:1019D000ED0A20005308B5005208B400BE30B8002C
:1019E0000230B900003053021E3003195202031CAA
:1019F000102DCE01CE0A2700141215122100D70196
:101A000020005308FB005208FA00FB36FA0C7A0853
:101A1000D2007B08D3005308B5005208B400222D31
:101A2000CE01270014161516003020005302143082
:101A300003195202031C1F2D2100D701222D210062
:101A4000D701D70AF93020009B009C101C101C17EE
:101A50009C121C129C15AF30AC000030AD002D085C
:101A60002100C30020002C082100C20020001C110E
:101A70009A01080020004608003A03194B2B013A4E
:101A80000319F32B033A0319622C013A0319C92CE9
:101A9000492D080021006008803AE1008030610291
:101AA000031D542DC9305F02031C6A2D21006008FC
:101AB000803AE100A7306102031D602D11305F0202
:101AC00003186A2D03302100E10061082000C600E0
:101AD0006430B52D21006008803AE1008030610259
:101AE000031D742D64305F02031C992D21006008D2
:101AF000803AE10080306102031D802DC9305F0211
:101B00000318992D02302100E10061082000C60071
:101B10000A30DD000030DE005308E0005208DF002C
:101B2000883179208D3120005E08D3005D08D20015
:101B3000F02F21006008803AE10080306102031D2F
:101B4000A32D15305F02031CCE2D21006008803AC2
:101B5000E10080306102031DAF2D64305F02031885
:101B6000CE2D2000C601C60A0A30DD000030DE009E
:101B70005308E0005208DF00883179208D312000C1
:101B80005E08D3005D08D200023052065304031DE4
:101B9000F02F0130D2070030D33DF02F2100600834
:101BA000803AE10080306102031DD82D01305F02D0
:101BB000031CF02F21006008803AE10080306102B0
:101BC000031DE42D15305F020318F02F2000C6011D
:101BD000F02FCE0127001416151610302000BE007D
:101BE0005830BF008D30BC005730BD001030BA00F7
:101BF0005830BB00C6302100CE004B30CF004730FC
:101C0000CC006130CD002000C7018E110E133F08BB
:101C100029009C0020003E0829009B00053021007F
:101C2000E10061082000E5001C302100CA000030FE
:101C3000CB000230E10061082000D1001430210007
:101C4000E10061082000E3007A2E2100ED01ED0A99
:101C50004D2E2100ED01ED0A8930772E2100ED0196
:101C6000ED0A542E2100ED01ED0A9930772E562E03
:101C70002100ED01ED0A692E5B2E2100ED01ED0A38
:101C8000C830772E602E2100ED01ED0AED30772E61
:101C900002302100E1006108ED008230772E023031
:101CA0002100E1006108ED009130772E2100ED0167
:101CB000ED0AA330772E2100ED01ED0ABA30772E20
:101CC0002100ED01ED0A762E03302100E1006108CC
:101CD000ED00AE30772E0330722E0430722E0630B7
:101CE000722E0C302100E1006108ED00D930200097
:101CF0009B00872E5208FF3E031C712E8400143077
:101D000004020318712E90310435003E82009C14A9
:101D10001C101C179C161C169C150430B8000030B3
:101D2000B9009A011C150800CE01270014161516DB
:101D300099302000BE005930BF00CC30BC004C3080
:101D4000BD009930BA005930BB00C7018E110E1387
:101D50003F0829009C0020003E0829009B003730E6
:101D60002100E10061082000E300E501E50A21000F
:101D7000ED01ED0A20005308DE005208DD00983026
:101D8000DF003A30E000883179208D3120005E0894
:101D9000B9005D08B8003908DE003808DD000630FB
:101DA000DF000030E000883100208D3120005E0827
:101DB000B9005D08B80039082100E20020003808A9
:101DC0002100E100E236E10CE236E10CE236E10C02
:101DD00061082000B800210062082000B900FA3034
:101DE0009B009C101C101C139C161C129C11C430D0
:101DF000AC000030AD002D082100C30020002C08ED
:101E00002100C20001302000B4000030B5001C11D8
:101E10009A010800CE01270014161516F130200093
:101E2000BE005230BF00CC30BC004C30BD009930F9
:101E3000BA005930BB00C430AC000030AD002D08F2
:101E40002100C30020002C082100C2002000C7018F
:101E50008E110E133F0829009C0020003E08290027
:101E60009B0037302100E10061082000E300E5011C
:101E7000E50A2100ED01ED0A200052092100E100F0
:101E8000200053092100E200E10A0319E20A610877
:101E9000143E2000DD0000302100623D2000DE0005
:101EA000CC30DF000130E0008831002020005D08E8
:101EB000883EB80013305E3DB90080309B009C1016
:101EC0001C101C139C121C129C11C430AC0000305E
:101ED000AD002D082100C30020002C082100C20005
:101EE00001302000B4000030B5001C119A01080038
:101EF000F130BE005230BF00C030BC004A30BD00DF
:101F00009930BA005930BB00C7018E110E133F083B
:101F100029009C0020003E0829009B00373021004A
:101F2000E10061082000E300E501E50A2100ED0180
:101F3000ED0A20005308B5005208B400BE30B800C6
:101F40000230B900003053021E3003195202031C44
:101F5000C62FCE01CE0A2700141215122100D70178
:101F6000200053082100E200200052082100E10077
:101F7000E236E10C61082000D20021006208200056
:101F8000D3005308B5005208B400D82FCE01270063
:101F90001416151600302000530214300319520293
:101FA000031CD52F2100D701D82F2100D701D70A34
:101FB000F93020009B009C101C101C179C121C1256
:101FC0009C15AF30AC000030AD002D082100C300DF
:101FD00020002C082100C20020001C119A010800DA
:101FE00020004608003A0319E92D013A0319942EFE
:101FF000033A03190A2F013A0319782FFF2F08001B
:102000008E31712E8E316F2E8E316D2E8E316B2E64
:102010008E31642E8E31602E8E315B2E8E31562E97
:102020008E314F2E8E31482E8E31432E8E31422EE0
:102030008E313D2E8E313C2E8E31382E8E31372E04
:102040008E31322E8E312E2E8E31292E8E31252E2E
:102050008B31D02B8B31CE2B8B31CC2B8B31CA2BB0
:102060008B31C32B8B31BF2B8B31BA2B8B31B52BE3
:102070008B31AE2B8B31A72B8B31A22B8B31A12B2C
:102080008B319C2B8B319B2B8B31972B8B31962B50
:102090008B31912B8B318D2B8B31882B8B31842B7A
:1020A0008331352B8331E02B84317D2C8431A92C75
:1020B0008431D32C85312B2D8631242E86313E2E32
:0C20C0008631522E8631C82E8631772ED4
:1027E40014340134143421001D151D16D0309E00FC
:1027F4001D14080029001F109F109A0199019801C7
:102804009E170800013400340234033401340034C8
:102814000A3401348B1527001416141715161517CE
:1028240096018B1708002D00931613170630940099
:10283400950115309100153092009317080064003B
:10284400800101310130FE020030FF3B7F087E042D
:1028540003190034222C210091140B17FF3020009F
:102864009B009C141C141C139C121C129C15080025
:102874002100D6012000C1018E110E13C901C80127
:102884001C119A01B201B301B601B701080021007D
:10289400D6012000C1018E110E13C901C8011C11FB
:1028A4009A01B201B301B601B70108000B17FF305A
:1028B40020009B0021009516151495141511200075
:1028C4009501210095110B118B16080023001E158C
:1028D4009F1501309C00A0309B0021008D16230021
:1028E4001E129D179E161D1620001112911208002B
:1028F400F401F501701C822C7208F4077308F53D8D
:102904000130F235F30D890B832C0130F136F00CD4
:10291400890B882C70087104031D7C2C7508F10048
:102924007408F000080022009715971721000E156F
:1029340023000E15220092149216111592171217E5
:102944002100921622001116911721000E14230063
:102954000E1422001415141294121315941714173C
:10296400210012172200131693170B1708000330C7
:10297400200046069631031D262E94310B1CC62DCD
:102984000B100D1EC82C20000C16CA2C20000C1293
:102994000D1FCF2C20008E17D12C20008E13270062
:1029A400161AD62C161FC82D21005703031D772D88
:1029B400003020000D1B0230D4005408CD0000303C
:1029C4000D1A0130D4005408CD074903031D222DEC
:1029D4004A08013EE73E8600870101084D06031DB3
:1029E400002D0130B6070030B73D0130A407003098
:1029F400A53D0030A63D0030A73D672D4A08FF3EA7
:102A0400E73E8600870101084D06031D722D360836
:102A140037040319112D0130B6020030B73B0130E1
:102A2400D4000030D5000030D6000030D700540860
:102A3400A4025508A53B5608A63B5708A73B3A2DC8
:102A44004803031D722D4A08FF3EE73E86008701B6
:102A540001084D06031D462D0130B6070030B73D71
:102A64000130A4070030A53D0030A63D0030A73D4D
:102A740002304A020318432D0430D4005408CA001B
:102A8400722D0130CA02722D4A08013EE73E8600CB
:102A9400870101084D06031D722D360837040319FA
:102AA400572D0130B6020030B73B0130D40000305E
:102AB400D5000030D6000030D7005408A4025508D1
:102AC400A53B5608A63B5708A73B04304A02031C03
:102AD4006E2DCA01CA0A722D0130D4005408CA07E7
:102AE4004D08D4005408CC00842D01302000B607D2
:102AF4000030B73D0130A4070030A53D0030A63DAD
:102B04000030A73D27009601200035083706031D35
:102B14008D2D34083606031DC82D1C111A08D40047
:102B24005408B20036082100AC0720003708210001
:102B3400AD3D0030AE3DAF3D2000B601B7019A0176
:102B44001C1533083902031DA92D32083802031855
:102B5400CA2D3F083D02031DB12D3E083C029531AC
:102B64000318DB2D4008031DD42D6308D400D501C0
:102B7400D409D509D40A0319D50A3E085407BE005E
:102B84003F08553D9531DA2D9531E82D9531E52DE8
:102B94009531CC2D3B083F02031DD22D3A083E024D
:102BA4000318DB2D63083E07BE003F0803183F0AE5
:102BB400BF003F0829009C0020003E0829009B001C
:102BC4002000B201B3010B10270096012000911CD4
:102BD400DA2E91100130D4005408B3071A08D40037
:102BE4005408B20033083902031DFA2D32083802A2
:102BF4000318DA2EB201B30136082100AC07200015
:102C040037082100AD3D0030AE3DAF3D2000B60198
:102C1400B7014008031D242E3F083D02031D142E56
:102C24003E083C020318242E6308D400D501D409BD
:102C3400D509D40A0319D50A3E085407BE003F0833
:102C4400553DBF0081313B290230200046069731B3
:102C5400031D6C2F95310B1CDC2E0B100D1E352E15
:102C640020000C16372E20000C120D1F3C2E2000C5
:102C74008E173E2E20008E132700161A432E161F81
:102C8400DE2E003020000D1B0230D4005408CD008D
:102C940000300D1A0130D4005408CD074903031D38
:102CA4008B2E4A08013EE73E8600870101084D0647
:102CB400031D692E0130B6070030B73D0130A4076B
:102CC4000030A53D0030A63D0030A73DD12E4A0876
:102CD400FF3EE73E8600870101084D06031DAB2E2B
:102CE4003608370403197A2E0130B6020030B73B98
:102CF4000130D4000030D5000030D6000030D700B9
:102D04005408A4025508A53B5608A63B5708A73B00
:102D1400A32E4803031DAB2E4A08FF3EE73E860060
:102D2400870101084D06031DB02E0130B60700309F
:102D3400B73D0130A4070030A53D0030A63D00306A
:102D4400A73D02304A020318AD2E0430D4005408C3
:102D5400CA009631E42E0130CA02AB2E4A08013E65
:102D6400E73E8600870101084D06031DAB2E360899
:102D740037040319C12E0130B6020030B73B0130CD
:102D8400D4000030D5000030D6000030D7005408FD
:102D9400A4025508A53B5608A63B5708A73B043098
:102DA4004A029631031CE02E9531CA01CA0AAB2EA1
:102DB4008231C82A97313F2F97313D2F0130D400FB
:102DC4005408CA074D08D4005408CC00360337040D
:102DD400031D3B2F1C111A08D4005408B2003608F6
:102DE4002100AC07200037082100AD3D0030AE3D86
:102DF400AF3D2000B601B7019A011C153308390212
:102E0400031D062F320838020318212F4008031D22
:102E1400212F3F083D02031D112F3E083C020318D9
:102E2400302F6308D400D501D409D509D40A031975
:102E3400D50A3E085407BE003F08553D2F2F3B08D6
:102E44003F02031D272F3A083E020318302F630860
:102E54003E07BE003F0803183F0ABF003F08290091
:102E64009C0020003E0829009B0020009110B20124
:102E7400B301270096010B1096012000911CF62F38
:102E840091100130D4005408B30733083902031DEC
:102E94004D2F320838020318F62FB201B301360859
:102EA4003704031D632F3F083D02031D5B2F3E08BB
:102EB4003C020318F82F40088131031D2729813172
:102EC400092900303702023003193602031CF82F97
:102ED40081311F29200046038131031D4329963186
:102EE4000B1CFA2F0B100D1E7A2F20000C167C2FB2
:102EF40020000C120D1F812F20008E17832F20001D
:102F04008E132700161A882F161FFC2F003020005E
:102F14000D1B0230D4005408CD0000300D1A0130CE
:102F2400D4005408CD074903031DD12F4A08013E9C
:102F3400E73E8600870101084D06031DAF2F0130CF
:102F4400B6070030B73D0130A4070030A53D00307E
:102F5400A63D0030A73D803178284A08FF3EE73E71
:102F64008600870101084D06031DF12F360837043A
:102F74000319C02F0130B6020030B73B0130D40032
:102F84000030D5000030D6000030D7005408A40229
:102F94005508A53B5608A63B5708A73BE92F48030D
:102FA400031DF12F4A08FF3EE73E86008701010812
:102FB4004D06031DFE2F0130B6070030B73D01302A
:102FC400A4070030A53D0030A63D0030A73D0230E7
:102FD4004A020318F32F0430D4005408CA00803185
:102FE40083280130CA02F12F8231C82A81312E2967
:0C2FF4008031E4288031E128803157282A
:020000040001F9
:04000E0064C9FFDDE5
:00000001FF
